{
  "contractName": "Color",
  "abi": [
    {
      "anonymous": false,
      "inputs": [
        {
          "indexed": true,
          "internalType": "string",
          "name": "color",
          "type": "string"
        },
        {
          "indexed": false,
          "internalType": "address",
          "name": "_buyer",
          "type": "address"
        }
      ],
      "name": "ColorBought",
      "type": "event"
    },
    {
      "inputs": [
        {
          "internalType": "string",
          "name": "",
          "type": "string"
        }
      ],
      "name": "colorToOwner",
      "outputs": [
        {
          "internalType": "address",
          "name": "",
          "type": "address"
        }
      ],
      "stateMutability": "view",
      "type": "function",
      "constant": true
    },
    {
      "inputs": [
        {
          "internalType": "string",
          "name": "_color",
          "type": "string"
        }
      ],
      "name": "buyColor",
      "outputs": [],
      "stateMutability": "payable",
      "type": "function",
      "payable": true
    },
    {
      "inputs": [
        {
          "internalType": "string",
          "name": "_color",
          "type": "string"
        }
      ],
      "name": "colorAvailable",
      "outputs": [
        {
          "internalType": "bool",
          "name": "",
          "type": "bool"
        }
      ],
      "stateMutability": "view",
      "type": "function",
      "constant": true
    },
    {
      "inputs": [],
      "name": "totalSpend",
      "outputs": [
        {
          "internalType": "uint256",
          "name": "",
          "type": "uint256"
        }
      ],
      "stateMutability": "view",
      "type": "function",
      "constant": true
    },
    {
      "inputs": [],
      "name": "getAllColors",
      "outputs": [
        {
          "components": [
            {
              "internalType": "address",
              "name": "user",
              "type": "address"
            },
            {
              "internalType": "string",
              "name": "color",
              "type": "string"
            }
          ],
          "internalType": "struct Color.UserColor[]",
          "name": "",
          "type": "tuple[]"
        }
      ],
      "stateMutability": "view",
      "type": "function",
      "constant": true
    }
  ],
  "bytecode": "0x608060405234801561001057600080fd5b50610d2b806100206000396000f3fe60806040526004361061004a5760003560e01c806332e238a51461004f57806335de7c621461006b578063c1cf2e6914610096578063c2f7b8ef146100c1578063ff4f392f146100fe575b600080fd5b610069600480360381019061006491906105df565b61013b565b005b34801561007757600080fd5b50610080610268565b60405161008d9190610805565b60405180910390f35b3480156100a257600080fd5b506100ab6103fc565b6040516100b89190610840565b60405180910390f35b3480156100cd57600080fd5b506100e860048036038101906100e3919061098b565b610404565b6040516100f591906109ef565b60405180910390f35b34801561010a57600080fd5b506101256004803603810190610120919061098b565b61047a565b6040516101329190610a19565b60405180910390f35b61018882828080601f016020809104026020016040519081016040528093929190818152602001838380828437600081840152601f19601f82011690508083019250505050505050610404565b6101c7576040517f08c379a00000000000000000000000000000000000000000000000000000000081526004016101be90610a91565b60405180910390fd5b33600083836040516101da929190610ae1565b908152602001604051809103902060006101000a81548173ffffffffffffffffffffffffffffffffffffffff021916908373ffffffffffffffffffffffffffffffffffffffff16021790555060018282909180600181540180825580915050600190039060005260206000200160009091929091929091929091925091906102639291906104c3565b505050565b6060806000805b6001805490508110156103f35760006001828154811061029257610291610afa565b5b9060005260206000200180546102a790610b58565b80601f01602080910402602001604051908101604052809291908181526020018280546102d390610b58565b80156103205780601f106102f557610100808354040283529160200191610320565b820191906000526020600020905b81548152906001019060200180831161030357829003601f168201915b505050505090506000604051806040016040528060006001868154811061034a57610349610afa565b5b906000526020600020016040516103619190610c1e565b908152602001604051809103902060009054906101000a900473ffffffffffffffffffffffffffffffffffffffff1673ffffffffffffffffffffffffffffffffffffffff168152602001838152509050808585815181106103c5576103c4610afa565b5b602002602001018190525083806103db90610c64565b945050505080806103eb90610c64565b91505061026f565b50819250505090565b600047905090565b60008073ffffffffffffffffffffffffffffffffffffffff1660008360405161042d9190610cde565b908152602001604051809103902060009054906101000a900473ffffffffffffffffffffffffffffffffffffffff1673ffffffffffffffffffffffffffffffffffffffff16149050919050565b6000818051602081018201805184825260208301602085012081835280955050505050506000915054906101000a900473ffffffffffffffffffffffffffffffffffffffff1681565b8280546104cf90610b58565b90600052602060002090601f0160209004810192826104f15760008555610538565b82601f1061050a57803560ff1916838001178555610538565b82800160010185558215610538579182015b8281111561053757823582559160200191906001019061051c565b5b5090506105459190610549565b5090565b5b8082111561056257600081600090555060010161054a565b5090565b6000604051905090565b600080fd5b600080fd5b600080fd5b600080fd5b600080fd5b60008083601f84011261059f5761059e61057a565b5b8235905067ffffffffffffffff8111156105bc576105bb61057f565b5b6020830191508360018202830111156105d8576105d7610584565b5b9250929050565b600080602083850312156105f6576105f5610570565b5b600083013567ffffffffffffffff81111561061457610613610575565b5b61062085828601610589565b92509250509250929050565b600081519050919050565b600082825260208201905092915050565b6000819050602082019050919050565b600073ffffffffffffffffffffffffffffffffffffffff82169050919050565b600061068382610658565b9050919050565b61069381610678565b82525050565b600081519050919050565b600082825260208201905092915050565b60005b838110156106d35780820151818401526020810190506106b8565b838111156106e2576000848401525b50505050565b6000601f19601f8301169050919050565b600061070482610699565b61070e81856106a4565b935061071e8185602086016106b5565b610727816106e8565b840191505092915050565b600060408301600083015161074a600086018261068a565b506020830151848203602086015261076282826106f9565b9150508091505092915050565b600061077b8383610732565b905092915050565b6000602082019050919050565b600061079b8261062c565b6107a58185610637565b9350836020820285016107b785610648565b8060005b858110156107f357848403895281516107d4858261076f565b94506107df83610783565b925060208a019950506001810190506107bb565b50829750879550505050505092915050565b6000602082019050818103600083015261081f8184610790565b905092915050565b6000819050919050565b61083a81610827565b82525050565b60006020820190506108556000830184610831565b92915050565b600080fd5b7f4e487b7100000000000000000000000000000000000000000000000000000000600052604160045260246000fd5b610898826106e8565b810181811067ffffffffffffffff821117156108b7576108b6610860565b5b80604052505050565b60006108ca610566565b90506108d6828261088f565b919050565b600067ffffffffffffffff8211156108f6576108f5610860565b5b6108ff826106e8565b9050602081019050919050565b82818337600083830152505050565b600061092e610929846108db565b6108c0565b90508281526020810184848401111561094a5761094961085b565b5b61095584828561090c565b509392505050565b600082601f8301126109725761097161057a565b5b813561098284826020860161091b565b91505092915050565b6000602082840312156109a1576109a0610570565b5b600082013567ffffffffffffffff8111156109bf576109be610575565b5b6109cb8482850161095d565b91505092915050565b60008115159050919050565b6109e9816109d4565b82525050565b6000602082019050610a0460008301846109e0565b92915050565b610a1381610678565b82525050565b6000602082019050610a2e6000830184610a0a565b92915050565b600082825260208201905092915050565b7f436f6c6f7220616c726561647920626f75676874000000000000000000000000600082015250565b6000610a7b601483610a34565b9150610a8682610a45565b602082019050919050565b60006020820190508181036000830152610aaa81610a6e565b9050919050565b600081905092915050565b6000610ac88385610ab1565b9350610ad583858461090c565b82840190509392505050565b6000610aee828486610abc565b91508190509392505050565b7f4e487b7100000000000000000000000000000000000000000000000000000000600052603260045260246000fd5b7f4e487b7100000000000000000000000000000000000000000000000000000000600052602260045260246000fd5b60006002820490506001821680610b7057607f821691505b60208210811415610b8457610b83610b29565b5b50919050565b60008190508160005260206000209050919050565b60008154610bac81610b58565b610bb68186610ab1565b94506001821660008114610bd15760018114610be257610c15565b60ff19831686528186019350610c15565b610beb85610b8a565b60005b83811015610c0d57815481890152600182019150602081019050610bee565b838801955050505b50505092915050565b6000610c2a8284610b9f565b915081905092915050565b7f4e487b7100000000000000000000000000000000000000000000000000000000600052601160045260246000fd5b6000610c6f82610827565b91507fffffffffffffffffffffffffffffffffffffffffffffffffffffffffffffffff821415610ca257610ca1610c35565b5b600182019050919050565b6000610cb882610699565b610cc28185610ab1565b9350610cd28185602086016106b5565b80840191505092915050565b6000610cea8284610cad565b91508190509291505056fea264697066735822122047a7b27dfcc25360d00410a0e9d603e98ab56f346ebb7fdfe549bc1e37519a9164736f6c634300080b0033",
  "immutableReferences": {},
  "source": "pragma solidity 0.8.11;\n\ncontract Color {\n    mapping(string => address) public colorToOwner;\n    string[] private colorsBought;\n\n    struct UserColor {\n        address user;\n        string color;\n    }\n\n    event ColorBought(string indexed color, address _buyer);\n\n    function buyColor(string calldata _color) external payable {\n        require(colorAvailable(_color), \"Color already bought\");\n        colorToOwner[_color] = msg.sender;\n        colorsBought.push(_color);\n    }\n\n    function colorAvailable(string memory _color) public view returns (bool) {\n        return colorToOwner[_color] == address(0);\n    }\n\n    function totalSpend() external view returns (uint256) {\n        return address(this).balance;\n    }\n\n    function getAllColors() external view returns (UserColor[] memory) {\n        UserColor[] memory colors;\n\n        uint256 arrayLength = 0;\n        for (uint256 i = 0; i < colorsBought.length; i++) {\n            string memory color = colorsBought[i];\n            UserColor memory userColor = UserColor({\n                user: colorToOwner[colorsBought[i]],\n                color: color\n            });\n            colors[arrayLength] = userColor;\n            arrayLength++;\n        }\n        return colors;\n    }\n}\n",
  "sourcePath": "/home/lorenzo/code/color-shop/packages/web3/contracts/Color.sol",
  "compiler": {
    "name": "solc",
    "version": "0.8.11+commit.d7f03943.Emscripten.clang"
  },
  "schemaVersion": "3.4.4",
  "updatedAt": "2022-03-30T17:07:15.509Z",
  "networkType": "ethereum",
  "devdoc": {
    "kind": "dev",
    "methods": {},
    "version": 1
  },
  "userdoc": {
    "kind": "user",
    "methods": {},
    "version": 1
  }
}